:1000000010C015C014C013C012C011C010C00FC062
:100010000EC00DC00CC00BC00AC009C008C007C08C
:1000200006C011241FBECFEDCDBFA5D073C1E8CF50
:10003000982F907F8F70903A29F0903B29F4E7E356
:10004000F0E002C0EAE3F0E0908121E030E0082E29
:1000500002C0220F331F0A94E2F720952923623051
:1000600040F470E002C0660F771F8A95E2F7262BF6
:1000700020830895982F907F8F70903A29F0903BBD
:1000800029F4E8E3F0E002C0EBE3F0E0908121E046
:1000900030E0082E02C0220F331F0A94E2F72095A9
:1000A0002923623040F470E002C0660F771F8A9502
:1000B000E2F7262B2083089584E088BB82E08A95AE
:1000C000F1F700C018BA089584E088BB18BA82E03E
:1000D0008A95F1F700C00895CF93C82F882314F4B0
:1000E000EBDF01C0F1DFC6FF02C0E6DF01C0ECDFDD
:1000F000C5FF02C0E1DF01C0E7DFC4FF02C0DCDFF3
:1001000001C0E2DFC3FF02C0D7DF01C0DDDFC2FFF5
:1001100002C0D2DF01C0D8DFC1FF02C0CDDF01C005
:10012000D3DFC0FF02C0C8DF01C0CEDFCF9108958A
:100130000F931F93CF93DF93082F162FD42FC0E078
:10014000CA3040F4802FC8DF812FC6DF8D2FC4DF77
:10015000CF5FF6CFDF91CF911F910F91089586B1B8
:10016000806486B93699FECF85B1873910F481E075
:10017000089580E0089561E082EB5ADF61E087EA4C
:1001800057DF60E083EA54DF61E083EA73DF8FE1E9
:100190009EE40197F1F700C000004FEF6FEF8FEF83
:1001A000C7DF00E010E0B12CC12CD12CF12CA12C28
:1001B000EE24E394C0E0D0E0D2DF882321F0FF20DA
:1001C00019F080E001C080E0882369F19FEF24E30B
:1001D0008CE0915020408040E1F700C00000BFDF7C
:1001E000811121C0A11010C04B2D6C2D8D2DA0DFD1
:1001F0009FEF20E782E0915020408040E1F700C06F
:100200000000FF24F3940DC040E060E080E090DF48
:100210009FEF20E782E0915020408040E1F700C04E
:10022000000081E0A8269BDF882309F46BC00F5FE4
:100230001F4FDE0DDF3F19F0DD2321F005C0EE2456
:10024000EA9402C0EE24E394093C11054CF0CF5F20
:10025000C83018F400E010E003C000E010E0C0E097
:10026000C11108C040E06D2F80E062DFCD2EB12CBF
:10027000D12C49C0C13049F4DD2ED69440E06D2F19
:100280008D2D56DFCD2EB12C3EC0C23041F440E062
:100290006D2F8D2F4DDFCD2EDD2EB12C34C0C33010
:1002A00041F440E060E08D2F43DFDD2EB12CC12C06
:1002B0002AC0C43041F44D2F60E08D2F39DFBD2EB0
:1002C000DD2EC12C20C0C53041F44D2F60E080E010
:1002D0002FDFBD2EC12CD12C16C0C63049F4CD2E37
:1002E000C6944D2F6C2D80E023DFBD2ED12C0BC08A
:1002F000C73049F44D2F6D2F8D2F1ADFBD2ECD2E17
:10030000DD2E01C0F12C8FE697E10197F1F700C0D7
:08031000000052CFF894FFCF6A
:00000001FF
