:1000000010C01DC01CC01BC01AC019C018C017C02A
:1000100016C015C014C013C012C011C010C00FC04C
:100020000EC011241FBECFEDCDBF20E0A0E6B0E092
:1000300001C01D92A136B207E1F7FCD012C2E0CF99
:10004000982F907F8F70903A29F0903B29F4E7E346
:10005000F0E002C0EAE3F0E0908121E030E0082E19
:1000600002C0220F331F0A94E2F720952923623041
:1000700040F470E002C0660F771F8A95E2F7262BE6
:1000800020830895982F907F8F70903A29F0903BAD
:1000900029F4E8E3F0E002C0EBE3F0E0908121E036
:1000A00030E0082E02C0220F331F0A94E2F7209599
:1000B0002923623040F470E002C0660F771F8A95F2
:1000C000E2F7262B2083089588B3846088BB86E0FE
:1000D0008A95F1F700C088B38B7F88BB089588B3F9
:1000E000846088BB88B38B7F88BB86E08A95F1F7F4
:1000F00000C0089583E280BF81E083BF12BE8FE716
:100100008CBF0895E199FECF1CBA70E07FBB6EBB37
:100110008DBB8CB384608CBB8CB382608CBB089528
:10012000E199FECF90E09FBB8EBB8CB381608CBB0E
:100130008DB30895CF93C82F882314F4C5DF01C071
:10014000CEDFC6FF02C0C0DF01C0C9DFC5FF02C0ED
:10015000BBDF01C0C4DFC4FF02C0B6DF01C0BFDF28
:10016000C3FF02C0B1DF01C0BADFC2FF02C0ACDF13
:1001700001C0B5DFC1FF02C0A7DF01C0B0DFC0FF13
:1001800002C0A2DF01C0ABDFCF9108950F931F9390
:10019000CF93DF93082F162FD42FC0E0C03940F43F
:1001A000802FC8DF812FC6DF8D2FC4DFCF5FF6CF52
:1001B000DF91CF911F910F91089582E087B987E871
:1001C00086B980E183B9089520E040E050E024360C
:1001D00050F496B1906496B93699FECF85B1480F28
:1001E000511D2F5FF4CF24E630E0CA01B90125D1BB
:1001F000CB01880F991F860F971F880F991F829533
:100200009295907F9827807F9827861B970BB9013E
:1002100014D160936000089586B1806486B93699E0
:10022000FECF95B180916000891710F081E00895AC
:1002300080E0089561E082EB03DF61E087EA00DFA0
:1002400060E083EAFDDE61E083EA1CDFB6DF52DFB7
:10025000BBDF80E065DF882E81E062DF682E82E010
:100260005FDF582E83E05CDFB82E84E059DF082F73
:10027000C12CD12CE12CF12CC0E0D0E0912C10E06D
:10028000A12C77247394C8DF882309F4CBC021966E
:10029000CE01C297863B9340C0F5111136C0A11024
:1002A00012C0452D662D882D71DF81E0A8268FE7CD
:1002B0009AE126E0815090402040E1F700C0000024
:1002C000912C11E0B3C040E060E080E05FDF60E0CF
:1002D000882D18DF61E0862D15DF62E0852D12DFA5
:1002E00063E08B2D0FDF64E0802F0CDF81E0A82618
:1002F0008FE79AE126E0815090402040E1F700C06E
:1003000000009924939411E091C0C83E83E0D8077F
:100310000CF48CC091108AC0C114D10421F0CC0D12
:10032000DD1DC12CD12C070D0F3F19F0002321F04A
:1003300005C077247A9402C0772473949FEFE91A5A
:10034000F90AC63E25E0D207A4F0B39487E08B15E6
:1003500040F0E12CF12CC8EED3E000E07724739458
:1003600008C0E12CF12CC8EED3E000E0B12C7724DA
:100370007394B11008C040E0602F80E007DF602E6A
:10038000512C812C53C091E0B91209C0802E869463
:1003900040E0602F882DFADE602E512C47C022E00D
:1003A000B21208C040E0602F802FF0DE602E802E59
:1003B000512C3CC083E0B81208C040E060E0802FC0
:1003C000E5DE802E512C612C31C094E0B91208C0BA
:1003D000402F60E0802FDADE502E802E612C26C068
:1003E00025E0B21208C0402F60E080E0CFDE502E42
:1003F000612C812C1BC086E0B81209C0602E669467
:10040000402F662D80E0C2DE502E812C0FC097E079
:10041000B9120CC0402F602F802FB8DE502E602EF6
:10042000802E04C06701C0E0D0E010E087E893E1CF
:100430000197F1F700C0000026CFAA1BBB1B51E1BA
:1004400007C0AA1FBB1FA617B70710F0A61BB70B44
:10045000881F991F5A95A9F780959095BC01CD01E9
:060460000895F894FFCF9F
:00000001FF
