S0110000535645545F544553542E7372656332
S113000010C015C014C013C012C011C010C00FC05E
S11300100EC00DC00CC00BC00AC009C008C007C088
S113002006C011241FBECFEDCDBFB4D07BC1E8CF35
S1130030982F907F8F70903A29F0903B29F4E7E352
S1130040F0E002C0EAE3F0E0908121E030E0082E25
S113005002C0220F331F0A94E2F72095292362304D
S113006040F470E002C0660F771F8A95E2F7262BF2
S113007020830895982F907F8F70903A29F0903BB9
S113008029F4E8E3F0E002C0EBE3F0E0908121E042
S113009030E0082E02C0220F331F0A94E2F72095A5
S11300A02923623040F470E002C0660F771F8A95FE
S11300B0E2F7262B2083089584E088BB82E08A95AA
S11300C0F1F700C018BA089584E088BB18BA82E03A
S11300D08A95F1F700C0089583E280BF81E083BF71
S11300E012BE8FE78CBF089582E087B987E886B98E
S11300F080E183B90895CF93C82F882314F4DCDFFB
S113010001C0E2DFC6FF02C0D7DF01C0DDDFC5FFEB
S113011002C0D2DF01C0D8DFC4FF02C0CDDF01C0FE
S1130120D3DFC3FF02C0C8DF01C0CEDFC2FF02C0FD
S1130130C3DF01C0C9DFC1FF02C0BEDF01C0C4DF2D
S1130140C0FF02C0B9DF01C0BFDFCF9108950F9394
S11301501F93CF93DF93082F162FD42FC0E0CA30FC
S113016040F4802FC8DF812FC6DF8D2FC4DFCF5F1F
S1130170F6CFDF91CF911F910F91089586B18064DE
S113018086B93699FECF85B1873910F481E0089598
S113019080E0089561E082EB4BDF61E087EA48DFAD
S11301A060E083EA45DF61E083EA64DF95DF9CDF9A
S11301B02FE788E391E0215080409040E1F700C0B0
S11301C0000000E010E0BB24BA94CC24CA94DD24DF
S11301D0DA94E12CFF24F394C0E0D0E0CFDF88234D
S11301E009F499C08FE59AEE0197F1F700C0000079
S11301F0C5DF811125C0E1100EC04B2D6C2D8D2D56
S1130200A6DF9FEF20E782E0915020408040E1F795
S113021000C000000DC040E060E080E098DF9FEF88
S113022020E782E0915020408040E1F700C00000C8
S113023081E0E8268FE19EE40197F1F700C0000019
S11302400F5F1F4FDF0DDF3F19F0DD2321F005C0E5
S1130250FF24FA9402C0FF24F3940D3291E01907AD
S11302604CF0CF5FC83018F400E010E003C000E0A9
S113027010E0C0E0C11108C040E06D2F80E067DFEE
S1130280CD2EB12CD12C47C0C13049F4DD2ED694EB
S113029040E06D2F8D2D5BDFCD2EB12C3CC0C230E4
S11302A041F440E06D2F8D2F52DFCD2EDD2EB12C89
S11302B032C0C33041F440E060E08D2F48DFDD2ED2
S11302C0B12CC12C28C0C43041F44D2F60E08D2FD7
S11302D03EDFBD2EDD2EC12C1EC0C53041F44D2F96
S11302E060E080E034DFBD2EC12CD12C14C0C630B8
S11302F049F4CD2EC6944D2F6C2D80E028DFBD2E01
S1130300D12C09C0C73039F44D2F6D2F8D2F1FDF2D
S1130310BD2ECD2EDD2E8FEC97E00197F1F700C0B6
S10B032000005CCFF894FFCF4C
S9030000FC
