:1000000010C01DC01CC01BC01AC019C018C017C02A
:1000100016C015C014C013C012C011C010C00FC04C
:100020000EC011241FBECFEDCDBF20E0A0E6B0E092
:1000300001C01D92A136B207E1F714D1BCC1E0CFD7
:10004000982F907F8F70903A29F0903B29F4E7E346
:10005000F0E002C0EAE3F0E0908121E030E0082E19
:1000600002C0220F331F0A94E2F720952923623041
:1000700040F470E002C0660F771F8A95E2F7262BE6
:1000800020830895982F907F8F70903A29F0903BAD
:1000900029F4E8E3F0E002C0EBE3F0E0908121E036
:1000A00030E0082E02C0220F331F0A94E2F7209599
:1000B0002923623040F470E002C0660F771F8A95F2
:1000C000E2F7262B2083089588B3846088BB82E002
:1000D0008A95F1F700C088B38B7F88BB089588B3F9
:1000E000846088BB88B38B7F88BB82E08A95F1F7F8
:1000F00000C0089583E280BF81E083BF12BE8FE716
:100100008CBF0895CF93C82F882314F4DDDF01C07E
:10011000E6DFC6FF02C0D8DF01C0E1DFC5FF02C0D5
:10012000D3DF01C0DCDFC4FF02C0CEDF01C0D7DFF8
:10013000C3FF02C0C9DF01C0D2DFC2FF02C0C4DFFB
:1001400001C0CDDFC1FF02C0BFDF01C0C8DFC0FFFB
:1001500002C0BADF01C0C3DFCF9108950F931F9390
:10016000CF93DF93082F162FD42FC0E0C03940F46F
:10017000802FC8DF812FC6DF8D2FC4DFCF5FF6CF82
:10018000DF91CF911F910F9108950F931F93CF93FC
:10019000DF9382E087B981E886B980E183B9C0E066
:1001A00000E010E0C43608F044C086B1806486B92F
:1001B0003699FECFD5B1D1111BC040E060E08FEF82
:1001C000CDDF2FEF80E792E0215080409040E1F7B3
:1001D00000C0000040E06FEF8FEFC0DF2FEF80E73F
:1001E00092E0215080409040E1F700C000001AC02A
:1001F00040E06FEF80E0B2DF2FEF80E792E0215028
:1002000080409040E1F700C000004FEF6FEF80E0CA
:10021000A5DF2FEF80E792E0215080409040E1F78A
:1002200000C000000D0F111D86B186B986B1CF5FE9
:10023000B9CFC80164E670E097D060936000DF91A9
:10024000CF911F910F91089586B1806486B9369938
:10025000FECF95B180916000891710F081E008957C
:1002600080E0089561E082EBEBDE61E087EAE8DEA2
:1002700060E083EAE5DE61E083EA04DF86DF3ADFFF
:100280008FE19EE40197F1F700C000004FEF6FEFA0
:100290008FEF64DF00E010E0FF24F394C0E0D0E0D3
:1002A000D3DF882309F459C00F5F1F4FDF0DDF3FF5
:1002B00019F0DD2321F005C0FF24FA9402C0FF24C9
:1002C000F3940E3F91E019077CF0CF5FC83030F413
:1002D00000E010E0FF24F394D0E006C000E010E05E
:1002E000FF24F394C0E0D0E0C11105C040E06D2FC1
:1002F00080E034DF32C0C13031F440E06D2F8D2F0B
:1003000086952CDF2AC0C23029F440E06D2F8D2F56
:1003100025DF23C0C33029F440E060E08D2F1EDFCD
:100320001CC0C43029F44D2F60E08D2F17DF15C09D
:10033000C53029F44D2F60E080E010DF0EC0C630DC
:1003400031F44D2F6D2F669580E008DF06C0C73071
:1003500021F44D2F6D2F8D2F01DF8FE99FE0019745
:10036000F1F700C000009CCF97FB072E16F4009415
:1003700006D077FD08D00BD007FC05D03EF4909551
:1003800081959F4F0895709561957F4F0895AA1BA1
:10039000BB1B51E107C0AA1FBB1FA617B70710F070
:1003A000A61BB70B881F991F5A95A9F780959095A2
:0A03B000BC01CD010895F894FFCFC1
:00000001FF
