:1000000010C01DC01CC01BC01AC019C018C017C02A
:1000100016C015C014C013C012C011C010C00FC04C
:100020000EC011241FBECFEDCDBF20E0A0E6B0E092
:1000300001C01D92A136B207E1F7ECD0D7C1E0CFE5
:10004000982F907F8F70903A29F0903B29F4E7E346
:10005000F0E002C0EAE3F0E0908121E030E0082E19
:1000600002C0220F331F0A94E2F720952923623041
:1000700040F470E002C0660F771F8A95E2F7262BE6
:1000800020830895982F907F8F70903A29F0903BAD
:1000900029F4E8E3F0E002C0EBE3F0E0908121E036
:1000A00030E0082E02C0220F331F0A94E2F7209599
:1000B0002923623040F470E002C0660F771F8A95F2
:1000C000E2F7262B2083089588B3846088BB86E0FE
:1000D0008A95F1F700C088B38B7F88BB089588B3F9
:1000E000846088BB88B38B7F88BB86E08A95F1F7F4
:1000F00000C0089583E280BF81E083BF12BE8FE716
:100100008CBF0895CF93C82F882314F4DDDF01C07E
:10011000E6DFC6FF02C0D8DF01C0E1DFC5FF02C0D5
:10012000D3DF01C0DCDFC4FF02C0CEDF01C0D7DFF8
:10013000C3FF02C0C9DF01C0D2DFC2FF02C0C4DFFB
:1001400001C0CDDFC1FF02C0BFDF01C0C8DFC0FFFB
:1001500002C0BADF01C0C3DFCF9108950F931F9390
:10016000CF93DF93082F162FD42FC0E0C03940F46F
:10017000802FC8DF812FC6DF8D2FC4DFCF5FF6CF82
:10018000DF91CF911F910F91089582E087B987E8A1
:1001900086B980E183B986B1806486B990E020E0B9
:1001A00030E0943638F43699FECF85B1280F311DF2
:1001B0009F5FF7CFE4E6F0E0C901BF0103D1CB01B7
:1001C000880F991F860F971F880F991F8295929508
:1001D000907F9827807F9827861B970BBF01F2D0CE
:1001E00060936000089581E28FBD81E08EBD1DBCEB
:1001F0001CBC85B189BD85B188BD089586B1806478
:1002000086B93699FECF85B18B3C10F481E0089514
:1002100080E0089561E082EB13DF61E087EA10DFA0
:1002200061E085EA0DDF60E083EA0ADF61E083EAEE
:1002300029DFABDF5FDF8FE493EC0197F1F700C0BC
:1002400000004FEF6FEF8FEF89DFC0E0D0E0F12CBF
:10025000D12CEE24E394A12CB12CC12C00E010E0B1
:10026000C2DFCCDF882309F4A3C02196CE01C29758
:10027000863B934040F5F11026C0D11012C04A2DA4
:100280006B2D8C2D6BDF81E0D8268FE79AE126E07D
:10029000815090402040E1F700C00000FF24F3941B
:1002A0008AC040E060E080E059DF81E0D8268FE737
:1002B0009AE126E0815090402040E1F700C0000024
:1002C000FF24F39478C0C83E83E0D8070CF473C0D1
:1002D0001E0D1F3F19F0112321F005C0EE24EA94F2
:1002E00002C0EE24E394C63E95E0D9077CF00F5F90
:1002F000083030F4C8EED3E0EE24E39410E006C0FA
:10030000C8EED3E0EE24E39400E010E0011108C051
:1003100040E0612F80E022DFB12EA12CC12C4BC028
:10032000013049F4C12EC69440E0612F8C2D16DFB8
:10033000B12EA12C40C0023041F440E0612F812F4A
:100340000DDFB12EC12EA12C36C0033041F440E0A8
:1003500060E0812F03DFC12EA12CB12C2CC0043012
:1003600041F4412F60E0812FF9DEA12EC12EB12C86
:1003700022C0053041F4412F60E080E0EFDEA12E85
:10038000B12CC12C18C0063049F4B12EB694412FBF
:100390006B2D80E0E3DEA12EC12C0DC0073059F497
:1003A000412F612F812FDADEA12EB12EC12E03C085
:1003B000C0E0D0E0F12C87E893E10197F1F700C0AD
:1003C00000004ECFAA1BBB1B51E107C0AA1FBB1FD9
:1003D000A617B70710F0A61BB70B881F991F5A95D1
:1003E000A9F780959095BC01CD010895F894FFCFB1
:00000001FF
