S0110000535645545F544553542E7372656332
S113000010C01DC01CC01BC01AC019C018C017C026
S113001016C015C014C013C012C011C010C00FC048
S11300200EC011241FBECFEDCDBF20E0A0E6B0E08E
S113003001C01D92A136B207E1F7E9D0E0C1E0CFDB
S1130040982F907F8F70903A29F0903B29F4E7E342
S1130050F0E002C0EAE3F0E0908121E030E0082E15
S113006002C0220F331F0A94E2F72095292362303D
S113007040F470E002C0660F771F8A95E2F7262BE2
S113008020830895982F907F8F70903A29F0903BA9
S113009029F4E8E3F0E002C0EBE3F0E0908121E032
S11300A030E0082E02C0220F331F0A94E2F7209595
S11300B02923623040F470E002C0660F771F8A95EE
S11300C0E2F7262B2083089588B3846088BB86E0FA
S11300D08A95F1F700C088B38B7F88BB089588B3F5
S11300E0846088BB88B38B7F88BB86E08A95F1F7F0
S11300F000C0089583E280BF81E083BF12BE8FE712
S11301008CBF0895E199FECF1CBA70E07FBB6EBB33
S11301108DBB8CB384608CBB8CB382608CBB089524
S1130120CF93C82F882314F4CFDF01C0D8DFC6FFD4
S113013002C0CADF01C0D3DFC5FF02C0C5DF01C0F2
S1130140CEDFC4FF02C0C0DF01C0C9DFC3FF02C0ED
S1130150BBDF01C0C4DFC2FF02C0B6DF01C0BFDF26
S1130160C1FF02C0B1DF01C0BADFC0FF02C0ACDF13
S113017001C0B5DFCF9108950F931F93CF93DF9301
S1130180082F162FD42FC0E0C03940F4802FC8DFC9
S1130190812FC6DF8D2FC4DFCF5FF6CFDF91CF91E4
S11301A01F910F91089582E087B987E886B980E1AD
S11301B083B986B1806486B990E020E030E094365B
S11301C038F43699FECF85B1280F311D9F5FF7CFE4
S11301D0C90164E670E0FFD0CB01880F991F880F36
S11301E0991F880F991F6AE070E0F5D06093600052
S11301F0089586B1806486B93699FECF95B1809111
S11302006000891710F081E0089580E0089561E0AE
S113021082EB16DF61E087EA13DF60E083EA10DF38
S113022061E083EA2FDFBFDF65DF8FE493EC0197A2
S1130230F1F700C000004FEF6FEF8FEF9DDFC0E0DC
S1130240D0E0F12CE12CDD24D394A12CB12CC12CD1
S113025000E010E0CEDF882309F4B2C02196CE017D
S1130260C297863B9340B8F5F11035C0E11012C037
S11302704A2D6B2D8C2D80DF81E0E8268FE79AE1F3
S113028026E0815090402040E1F700C00000FF24A8
S1130290F3949AC040E060E080E06EDF60E08C2D73
S11302A031DF61E08B2D2EDF62E08A2D2BDF63E0EE
S11302B0802F28DF64E0812F25DF81E0E8268FE7A7
S11302C09AE126E0815090402040E1F700C0000010
S11302D0FF24F39479C0C83E83E0D8070CF474C0BB
S11302E01D0D1F3F19F0112321F005C0DD24DA9400
S11302F002C0DD24D394C63E95E0D9077CF00F5F9D
S1130300083030F4C8EED3E0DD24D39410E006C006
S1130310C8EED3E0DD24D39400E010E0011108C05E
S113032040E0612F80E028DFB12EA12CC12C4CC00D
S1130330013049F4C12EC69440E0612F8C2D1CDF9E
S1130340B12EA12C41C0023041F440E0612F812F35
S113035013DFB12EC12EA12C37C0033041F440E08D
S113036060E0812F09DFC12EA12CB12C2DC00430F7
S113037041F4412F60E0812FFFDEA12EC12EB12C6C
S113038023C0053041F4412F60E080E0F5DEA12E6A
S1130390B12CC12C19C0063049F4B12EB694412FAA
S11303A06B2D80E0E9DEA12EC12C0EC0073061F474
S11303B0412F612F812FE0DEA12EB12EC12E04C06A
S11303C0C0E0D0E0F12CE12C8FE097E20197F1F747
S11303D000C000003FCFAA1BBB1B51E107C0AA1FEE
S11303E0BB1FA617B70710F0A61BB70B881F991FD2
S11303F05A95A9F780959095BC01CD010895F8947C
S1050400FFCF28
S9030000FC
