:1000000010C01DC01CC01BC01AC019C018C017C02A
:1000100016C015C014C013C012C011C010C00FC04C
:100020000EC011241FBECFEDCDBF20E0A0E6B0E092
:1000300001C01D92A136B207E1F7FCD0FFC1E0CFAD
:10004000982F907F8F70903A29F0903B29F4E7E346
:10005000F0E002C0EAE3F0E0908121E030E0082E19
:1000600002C0220F331F0A94E2F720952923623041
:1000700040F470E002C0660F771F8A95E2F7262BE6
:1000800020830895982F907F8F70903A29F0903BAD
:1000900029F4E8E3F0E002C0EBE3F0E0908121E036
:1000A00030E0082E02C0220F331F0A94E2F7209599
:1000B0002923623040F470E002C0660F771F8A95F2
:1000C000E2F7262B2083089588B3846088BB86E0FE
:1000D0008A95F1F700C088B38B7F88BB089588B3F9
:1000E000846088BB88B38B7F88BB86E08A95F1F7F4
:1000F00000C0089583E280BF81E083BF12BE8FE716
:100100008CBF0895E199FECF1CBA70E07FBB6EBB37
:100110008DBB8CB384608CBB8CB382608CBB089528
:10012000E199FECF90E09FBB8EBB8CB381608CBB0E
:100130008DB30895CF93C82F882314F4C5DF01C071
:10014000CEDFC6FF02C0C0DF01C0C9DFC5FF02C0ED
:10015000BBDF01C0C4DFC4FF02C0B6DF01C0BFDF28
:10016000C3FF02C0B1DF01C0BADFC2FF02C0ACDF13
:1001700001C0B5DFC1FF02C0A7DF01C0B0DFC0FF13
:1001800002C0A2DF01C0ABDFCF9108950F931F9390
:10019000CF93DF93082F162FD42FC0E0C03940F43F
:1001A000802FC8DF812FC6DF8D2FC4DFCF5FF6CF52
:1001B000DF91CF911F910F91089582E087B987E871
:1001C00086B980E183B9089520E040E050E024360C
:1001D00050F496B1906496B93699FECF85B1480F28
:1001E000511D2F5FF4CF24E630E0CA01B90112D1CE
:1001F000CB01880F991F860F971F880F991F829533
:100200009295907F9827807F9827861B970BB9013E
:1002100001D160936000089586B1806486B93699F3
:10022000FECF95B180916000891710F081E00895AC
:1002300080E0089561E082EB03DF61E087EA00DFA0
:1002400060E083EAFDDE61E083EA1CDFB6DF52DFB7
:10025000BBDF80E065DFC82E81E062DFA82E82E090
:100260005FDF982E83E05CDFF82E84E059DF082FF3
:10027000C0E0D0E0D12C10E0E12CBB24B394CCDF63
:10028000882309F4BDC02196CE01C297863B9340D6
:10029000C0F5111136C0E11012C0492D6A2D8C2D08
:1002A00075DF81E0E8268FE79AE126E081509040F3
:1002B0002040E1F700C00000D12C11E0A4C040E0D4
:1002C00060E080E063DF60E08C2D1CDF61E08A2D60
:1002D00019DF62E0892D16DF63E08F2D13DF64E004
:1002E000802F10DF81E0E8268FE79AE126E0815039
:1002F00090402040E1F700C00000DD24D39411E0DD
:1003000082C0C83E83E0D8070CF47DC0D1107BC00A
:100310000B0D0F3F19F0002321F005C0BB24BA9448
:1003200002C0BB24B394C63E95E0D90784F0F39491
:1003300027E02F1530F0C8EED3E000E0BB24B394E3
:1003400006C0C8EED3E000E0F12CBB24B394F1105A
:1003500008C040E0602F80E019DFA02E912CC12C56
:1003600052C081E0F81209C0C02EC69440E0602F50
:100370008C2D0CDFA02E912C46C092E0F91208C003
:1003800040E0602F802F02DFA02EC02E912C3BC0BA
:1003900023E0F21208C040E060E0802FF7DEC02EBC
:1003A000912CA12C30C084E0F81208C0402F60E0EE
:1003B000802FECDE902EC02EA12C25C095E0F912E6
:1003C00008C0402F60E080E0E1DE902EA12CC12C1F
:1003D0001AC026E0F21209C0A02EA694402F6A2D62
:1003E00080E0D4DE902EC12C0EC087E0F8120BC046
:1003F000402F602F802FCADE902EA02EC02E03C06B
:10040000C0E0D0E010E087E893E10197F1F700C089
:10041000000035CFAA1BBB1B51E107C0AA1FBB1FA1
:10042000A617B70710F0A61BB70B881F991F5A9580
:10043000A9F780959095BC01CD010895F894FFCF60
:00000001FF
