S0110000535645545F544553542E7372656332
S113000010C01DC01CC01BC01AC019C018C017C026
S113001016C015C014C013C012C011C010C00FC048
S11300200EC011241FBECFEDCDBF20E0A0E6B0E08E
S113003001C01D92A136B207E1F7FCD02AC2E0CF7D
S1130040982F907F8F70903A29F0903B29F4E7E342
S1130050F0E002C0EAE3F0E0908121E030E0082E15
S113006002C0220F331F0A94E2F72095292362303D
S113007040F470E002C0660F771F8A95E2F7262BE2
S113008020830895982F907F8F70903A29F0903BA9
S113009029F4E8E3F0E002C0EBE3F0E0908121E032
S11300A030E0082E02C0220F331F0A94E2F7209595
S11300B02923623040F470E002C0660F771F8A95EE
S11300C0E2F7262B2083089588B3846088BB86E0FA
S11300D08A95F1F700C088B38B7F88BB089588B3F5
S11300E0846088BB88B38B7F88BB86E08A95F1F7F0
S11300F000C0089583E280BF81E083BF12BE8FE712
S11301008CBF0895E199FECF1CBA70E07FBB6EBB33
S11301108DBB8CB384608CBB8CB382608CBB089524
S1130120E199FECF90E09FBB8EBB8CB381608CBB0A
S11301308DB30895CF93C82F882314F4C5DF01C06D
S1130140CEDFC6FF02C0C0DF01C0C9DFC5FF02C0E9
S1130150BBDF01C0C4DFC4FF02C0B6DF01C0BFDF24
S1130160C3FF02C0B1DF01C0BADFC2FF02C0ACDF0F
S113017001C0B5DFC1FF02C0A7DF01C0B0DFC0FF0F
S113018002C0A2DF01C0ABDFCF9108950F931F938C
S1130190CF93DF93082F162FD42FC0E0C03940F43B
S11301A0802FC8DF812FC6DF8D2FC4DFCF5FF6CF4E
S11301B0DF91CF911F910F91089582E087B987E86D
S11301C086B980E183B9089520E040E050E0243608
S11301D050F496B1906496B93699FECF85B1480F24
S11301E0511D2F5FF4CF24E630E0CA01B9013DD19F
S11301F0CB01880F991F860F971F880F991F82952F
S11302009295907F9827807F9827861B970BB9013A
S11302102CD160936000089586B1806486B93699C4
S1130220FECF95B180916000891710F081E00895A8
S113023080E0089561E082EB03DF61E087EA00DF9C
S113024060E083EAFDDE61E083EA1CDFB6DF52DFB3
S1130250BBDF80E065DF682E81E062DF482E82E04C
S11302605FDF382E83E05CDF982E84E059DFE82ED0
S113027085E056DFA82EB12C86E052DFC82ED12CA3
S1130280C0E0D0E0712CF12C812C55245394C4DFB0
S1130290882309F4DBC08E010F5F1F4FE197C63B33
S11302A0D34008F042C0F11040C0811014C0432D67
S11302B0642D862D6BDF81E088268FE79AE126E0A6
S11302C0815090402040E1F700C00000E801712C0B
S11302D0FF24F394C3C040E060E080E057DF60E0B7
S11302E0862D10DF61E0842D0DDF62E0832D0ADFAF
S11302F063E0892D07DF64E08E2D04DF65E08A2D3D
S113030001DF66E08C2DFEDE81E088268FE79AE12E
S113031026E0815090402040E1F700C00000E80151
S113032077247394FF24F39499C0083E83E018075C
S113033008F491C0711091C0A114B10431F0E50129
S1130340C00FD11FA12CB12C01C0E801E50C9FEF17
S1130350E91619F0EE2021F005C055245A9402C084
S1130360552453942FEFC21AD20AC63E85E0D8070B
S1130370A0F0939497E0991540F0C8EED3E0C12C17
S1130380D12CE12C5524539408C0C8EED3E0C12CE1
S1130390D12CE12C912C55245394911008C040E0A9
S11303A06E2D80E0F3DE4E2C312C612C57C021E001
S11303B0921209C06E2C669440E06E2D862DE6DE06
S11303C04E2C312C4BC082E0981208C040E06E2DB8
S11303D08E2DDCDE4E2C6E2C312C40C093E0991215
S11303E008C040E060E08E2DD1DE6E2C312C412C13
S11303F035C024E0921208C04E2D60E08E2DC6DE7A
S11304003E2C6E2C412C2AC085E0981208C04E2D3B
S113041060E080E0BBDE3E2C412C612C1FC096E0E6
S1130420991209C04E2C46944E2D642D80E0AEDE08
S11304303E2C612C13C027E0921210C04E2D6E2D5D
S11304408E2DA4DE3E2C4E2C6E2C08C05601C0E02E
S1130450D0E0F12C03C0E80101C0E80187E893E192
S11304600197F1F700C0000012CFAA1BBB1B51E19A
S113047007C0AA1FBB1FA617B70710F0A61BB70B10
S1130480881F991F5A95A9F780959095BC01CD01B5
S10904900895F894FFCF6B
S9030000FC
